:4000000000800020110000001D0800001D08000008B5044B1A6803F53F5302331A6000F01DFC00BFFA46004010B5054C237833B9044B13B10448AFF300800123237010BD14
:40004000A081FF1F00000000BC370000084B10B51BB108490848AFF300800848036803B910BD074B002BFBD0BDE81040184700BF00000000A481FF1FBC370000C880FF1F6C
:400080000000000010B56F2839D0752802D06C2843D115E000F0B0F9012000F05FFE1F4C65220021204600F081F975220121204600F07CF9204600F07BF900F08FFF10BD4C
:4000C00000F0A8F9002000F049FE144C65220021204600F06BF96C220121204600F066F9204600F065F900F07FFF00F01DFA0C4B00221A705A606F20FFF7C4FF10BD074CA3
:4001000065220021204600F051F96F220121204600F04CF9204600F04BF910BDD080FF1FC081FF1F08B54078552809D057280DD04C2812D16C20094B1871FFF7A3FF08BDB1
:400140007520064B1871FFF79DFF08BD00F0A0F900F0AAF9014BC3E9020108BDD080FF1F10B5044C204600F011F92046FFF7DAFF10BD00BFE080FF1F70B500F0F9FF244C3E
:4001800001F096FAC4E9020100F0A8F9666801366660D4E902231CA1D1E9000101F04AF9C4E902011B4DD5E90223304600F052F901F006FD2070D5E90223D4E9020100F061
:4001C00053F901F0FDFC207400220023C4E9022364220021284600F0E9F8227C0121284600F0E4F822780221284600F0DFF80421284600F0A9F9284600F0DAF801F0F4F81A
:4002000070BD00BFAFF30080000000000070A740C081FF1FD080FF1F38B50F4D05F1100000F058F90D4C64220021204600F0BEF82A7C0121204600F0B9F82A7802212046F6
:4002400000F0B4F80421204600F07EF9204600F0AFF800F075FF38BDC081FF1FD080FF1F10B500F0F3FD044605E000F0E9FD00F0F9FD013CE4B2002CF7D110BD10B500F0F4
:40028000FDFE00F0C5FE00240DE0012000F066FD322000F03FFB002000F060FD322000F039FB0134E4B2092CEFD900F041F900F043F900F0DBFE10BD08B5012000F04EFDDF
:4002C000C82000F027FB002000F048FD00F02CF900F0D4FE08BD00BF10B500240DE0012000F03CFDC82000F015FB002000F036FDC82000F00FFB0134E4B2092CEFD96C20D3
:40030000034B1871FFF7BEFE00F0E4FF10BD00BFD080FF1F08B500F08BF8002000F0B6FE002000F0BFFE002000F0C8FE00F072FF08BD00BF10B500240DE0012000F00EFDF9
:40034000322000F0E7FA002000F008FD322000F0E1FA0134E4B2092CEFD962B600F0C4F800F008F800F068F800F0CCF800F03CF8FEE700BF08B500F067FC034800F0E0FCB9
:4003800000F012FC08BD00BF6101000038B50546002403E000F0AEFB2855013400F0B0FB0028F7D100F0B8FB38BD00BF4254704710B5044600F0BEFB00F0F6FB002213468C
:4003C00008E0E05C074988540133DBB2032B00D900230132172AF4D91821024800F0D4FB10BD00BFFC81FF1F08B5024800F08CFE08BD00BF1503000008B500F047FF0020E8
:4004000000F044FE012000F04DFE012000F056FE08BD00BF08B500F039FF012000F036FE002000F03FFE012000F048FE08BD00BF08B500F0E1FE08BD08B5044800F062FD4A
:4004400000F0C4FE024800F085FD08BD790100001902000038B514461D4601F039F922462B4601F09BF938BD38B514461D4606A3D3E9002301F0BCFA02460B46204629464D
:4004800001F0B6FA38BD00BF0000000040774B4108B501F00DF90022014B01F0A9FA08BD000059400000000008B507A3D3E9002301F074F902460B4600F0BEFF0022044B35
:4004C00001F096FA08BD00BF1F85EB51B81E094000408F4000230370704700BF08B540F6B83000F03FFE08BD08B500F09BFC034800F05AFC024800F0CBFC08BD6102000012
:40050000C037000008B5054800F074FD044800F09FFD044800F046FD08BD00BF7D020000B9020000D902000008B500F047FF08BD08B500F025FF08BD08B5024800F0E6FE40
:4005400008BD00BFE093040070B4002417E0035D002205E013F0010F01D00132D2B25B08002BF7D112F0010F07D1C678C5F10703012202FA03F33343C3700134E4B225460D
:400580004B1E9C42E3DB70BC704700BFFEE700BFF0B40022174611E050F82760F3B226F0FF0608E001EB420511F812406D78A5550132013BDBB2002BF4D10137212FEBD9C0
:4005C000F0BC7047064B1B78DBB203F00701054A11701B09013213704422034B1A707047CF0100496E5800407658004008B50A46002101F03CFB08BD38B50B222D4B1A8019
:4006000018232D4A13703321023211800232137045F6BF5229490A8002310B7002310A8002310B7002310A80254A13700222254B1A7008224FF040231A70032103F50073A2
:400640001970214B1B78DBB220490B70204B1A8041F25122023B1A80002419250CE01D4B1B7803F0010343EA440404F003044FF4F07000F0C1FE013D0DB1032CEFD115B944
:400680000320FFF783FF144B4FF480721A8007221A70002211490A704820023108701A700222033B1A700E4A137843F01F03137038BD00BF804000408240004088400040C6
:4006C000924000400043004008010049A146004022420040254200400440004006400040A243004008B501F0B7FA08BD38B572B6374A137843F00403137000240CE0354DDE
:40070000630019194A0011462A44084691882858FFF76CFF0134E4B2072CF0D900240BE02C48A20011194B0003441A8F596B186BFFF7D8FF0134E4B2012CF1D926494FF0F8
:400740009040FFF725FF254A254B1A60254A137843F0020313701032137843F002031370214C237843F040032370A2F58632513A137843F01003137008221C491C48FFF7D1
:40078000B1FF0A221B491C48FFF7ACFF08221B491B48FFF7A7FF08221A491B48FFF7A2FF1A4A137843F008031370194D61232B70FFF722FF81232B700122164B1A70FFF751
:4007C00001FF0E2221461448FFF78CFF38BD00BFE8460040CC37000088000048040404445818014003500140A0430040D408004802510040DC080048C0510040E80800486C
:4008000012510040F008004822510040224300400048004004000840B043004008B501F0EFF903680C2B00D1FEE7FEE708B5094B1A681044084BC31AB3F5007F02DC054B37
:40084000186005E001F0DCF90C2303604FF0FF32104608BDF080FF1F3882FF1F08B5104E104D16E029686B68AC68002204E051F8040B43F8040B0432A242F8D1E8680022EF
:4008800003E0002143F8041B04328242F9D11035013E002EE6D101F0B9F9FFF74BFDFEE7010000006439000008B5104A104B1A60104A136843F40073136000230AE0032B30
:4008C00003D80D4A52F8231000E00C490C4A42F8231001332F2BF2D90A4B1A780A4B1A70074A0A4B1A60FFF701FF08BD0004FA050CED00E014ED00E0000000001D08000075
:400900000080FF1FBC760040C080FF1F08ED00E001BE704710B5044605E0084B186800F06BFDA4F50044B4F5004FF6D8034B586800FB04F000F060FD10BD00BFF480FF1FD4
:4009400070B504460E46074B1D681F2802D90020FFF7DEFF04F01F04103455F8240045F8246070BD08ED00E038B504460D46072902D90020FFF7CCFF1F2C02D90020FFF787
:40098000C7FF04F01F0000F1604000F564406D01EDB2057038BD00BF08B500F035FD0B4A137843F020031370043A137843F010031370A2F58072137843F01003137000F007
:4009C00027FD0422024B1A6008BD00BF9865004000E100E00422014B1A60704700E100E00422014B1A60704780E100E010B5FFF7F7FF064B1C78064A137803F061031C43F5
:400A000000231370FFF7E6FF204610BD646500403382FF1F014B1878704700BF6464004010B504462B4B1A7802F0FF0312B1013BDBB200E01723284A1278D2B29342F1D005
:400A4000FFF7CEFF254B1978254A137803F061030B4313701F4B1A78D2B21F4B1B78DBB29A4207D11E4B1B7813F0020F02D01D4B1C702CE0184A13780133DBB21370137834
:400A8000DBB2172B02D90022134B1A70124B1A78D2B2104B1B78DBB29A420ED10D4A13780133DBB213701378DBB2032B02D90022084B1A7001220C4B1A70074B1B78DBB21D
:400AC0000A4AD4540A4A137843F002031370FFF781FF10BD3082FF1F1482FF1F646500403382FF1F476500403182FF1F1882FF1F84650040014B1878704700BF5765004051
:400B0000044B1B7813F0080F01D0012070470020704700BF6464004001E0044B1B78044B1B7813F0080FF8D1704700BF576500406464004008B500F067FC0E4B1A7842F043
:400B400003021A701A7802F0FC021A7000F060FCFFF746FF0023084A1370084A1370084A1370084A137803F0FD031370FFF732FF08BD00BF976500403082FF1F1482FF1FF3
:400B80003182FF1F8465004070B506460C46002506E0705DFFF744FF0135EDB2013CE4B2002CF6D170BD00BF08B501E00A4B1B780A4B1B7813F0080FF8D100F025FC084B2B
:400BC0001A7842F003021A701A7802F0FC021A7000F01EFC08BD00BF57650040646400409765004010B50724104B1C700422104B1A6010490220FFF7A3FE21460220FFF765
:400C0000B3FEFFF7D1FF00240B4B1C700B4B1C700B4B1C70FFF7EAFEFFF7FCFE094B1C704022A3F580731A7010BD00BF8865004080E100E0650C00003182FF1F3082FF1F42
:400C40001482FF1F8465004008B5054B1B7823B9FFF7C8FF0122024B1A70FFF79DFE08BDD181FF1F28E01F4B19781F4A137803F061030B431370137813F0020F24D01B4B86
:400C80001B7813F0FF0F0CD1194A13780133DBB213701378DBB2172B06D90022144B1A7002E00022114B1A70114B1B78DBB2114AD35CDBB2104A13700D4B1A78D2B20F4B1B
:400CC0001B78DBB29A42CED1094B1A78D2B20B4B1B78DBB29A4204D1094A137803F0FD0313707047646500403382FF1F3182FF1F3082FF1F1882FF1F476500401482FF1FE8
:400D000084650040014B1B681866704708ED00E04001C0B2014B1870704700BF08E400E04FF48072014B1A60704700BF00E100E04FF48072014B1A60704700BF80E100E004
:400D400010B50446FFF7F4FF2046FFF7DBFF0720FFF7DEFFFFF7E4FF10BD00BF044A137803F0FD03400000F0020018431070704720510040014B1B685864704708ED00E08E
:400D80004001C0B2014B1870704700BF01E400E00222014B1A60704700E100E00222014B1A60704780E100E010B50446FFF7F6FF2046FFF7DFFF0720FFF7E2FFFFF7E8FF1E
:400DC00010BD00BF7222084B1A702022FE331A700622A3F5AF731A70472210331A7000224E331A70704700BF8B64004010B500F00BFB04460A4A137843F020031370FE3298
:400E0000137843F010031370A2F58072137843F01003137000F04EF8204600F0F9FA10BD9B64004008B5054B1B7823B9FFF7CAFF0122024B1A70FFF7D9FF08BDD281FF1FBD
:400E4000014B1878704700BF48650040044B1B7813F0200F01D0012070470020704700BF69650040024B1B780BB1024B18707047D281FF1F49640040034B1B7813F0040F55
:400E8000FAD1024B18707047696400404964004038B5074B1B782BB938BDFFF7EDFF0134A4B201E005460024285D0028F5D138BDD281FF1F054A137843F0020313701032C9
:400EC000137843F002031370704700BFA2430040014B1B68D865704708ED00E04001C0B2014B1870704700BF07E400E08022014B1A60704700E100E08022014B1A607047B2
:400F000080E100E010B50446FFF7F6FF2046FFF7DFFF0020FFF7E2FFFFF7E8FF10BD00BF014B1B681864704708ED00E04001C0B2014B1870704700BF00E400E00122014BD5
:400F40001A60704700E100E00122014B1A60704780E100E010B50446FFF7F6FF2046FFF7DFFF0720FFF7E2FFFFF7E8FF10BD00BF014B1B68D864704708ED00E04001C0B2B9
:400F8000014B1870704700BF03E400E00822014B1A60704700E100E00822014B1A60704780E100E010B50446FFF7F6FF2046FFF7DFFF0720FFF7E2FFFFF7E8FF10BD00BF35
:400FC000014B1B685865704708ED00E04001C0B2014B1870704700BF05E400E02022014B1A60704700E100E02022014B1A60704780E100E010B50446FFF7F6FF2046FFF73D
:40100000DFFF0720FFF7E2FFFFF7E8FF10BD00BF2022014B1A60704780E200E0014B1B689865704708ED00E04001C0B2014B1870704700BF06E400E04022014B1A6070476C
:4010400000E100E04022014B1A60704780E100E010B50446FFF7F6FF2046FFF7DFFF0120FFF7E2FFFFF7E8FF10BD00BF024B1878C0F38000704700BF81450040024B187891
:4010800000F00100704700BF82450040044A137803F0FE0300F0010018431070704700BF00510040044A137803F0FD03400000F0020018431070704700510040044A137828
:4010C00003F0FB03800000F0040018431070704700510040014B1B681865704708ED00E04001C0B2014B1870704700BF04E400E01022014B1A60704700E100E01022014BDD
:401100001A60704780E100E010B50446FFF7F6FF2046FFF7DFFF0720FFF7E2FFFFF7E8FF10BD00BF024A137843F080031370704778640040014B1870704700BF856400404C
:40114000014B1878704700BF65640040014B1880704700BF48680040014B188880B2704788680040014B1880704700BF08680040024B1B78024B188880B27047046400405D
:401180008868004008B501E0FFF7E6FFFFF7D8FF10F0080FF8D108BD08B540F6B730FFF7D5FF40F6B730FFF7DDFF00F02DF9064A137843F01003137000F02AF9FFF7E2FFDD
:4011C0000120FFF7B7FF08BD9564004008B5054B1B7823B9FFF7E0FF0122024B1A70FFF7A1FF08BDD481FF1F024A137843F08003137070477C640040024A137803F07F03D8
:40120000137070477C640040014B1870704700BF8D640040014B1878704700BF6D640040014B1880704700BF58680040014B188880B2704798680040014B1880704700BFAD
:401240001868004008B501E0FFF7F0FFFFF7E2FF10F0080FF8D108BD08B540F20770FFF7DFFF40F20770FFF7E7FF00F0CDF8064A137843F01003137000F0CAF8FFF7E2FF0E
:401280000120FFF7C1FF08BD9D64004008B5054B1B7823B9FFF7E0FF0122024B1A70FFF7A3FF08BDD581FF1F024A137843F080031370704775650040024A137803F07F0308
:4012C0001370704775650040014B1870704700BF85650040014B1878704700BF65650040014B1878704700BF7565004008B50146014800F091F808BD24650040024B18683D
:4013000020F07F40704700BF4465004008B50146014800F081F808BD04650040034B1B78034B186820F07F40704700BF046500404465004008B501E0FFF7E0FFFFF7CAFFA3
:4013400010F0080FF8D108BD10B50B4C2046FFF7CDFF2046FFF7DAFF00F056F8074A137843F01003137000F053F8FFF7E3FF0120FFF7AAFF10BD00BFDF930400956500405D
:4013800008B5054B1B7823B9FFF7DEFF0122024B1A70FFF789FF08BDD681FF1F10B5FFF7BDFF044C6060044B1B782372FFF798FF607210BDD881FF1F8565004008B5084B51
:4013C0001B7813F0800F03D00122064B1A7002E00022044B1A70FFF76FFFFFF7DFFF08BD75650040D881FF1F024B1878C0F3C000704700BF804500400230800803D000BF75
:4014000001380046FCD17047EFF3108072B6704780F31088704700BFCBB20370C1F307234370C1F307418170704700BF81F0004102E000BF83F0004330B54FEA41044FEA4E
:40144000430594EA050F08BF90EA020F1FBF54EA000C55EA020C7FEA645C7FEA655C00F0E2804FEA5454D4EB5555B8BF6D420CDD2C4480EA020281EA030382EA000083EAA5
:40148000010180EA020281EA0303362D88BF30BD11F0004F4FEA01314FF4801C4CEA113102D0404261EB410113F0004F4FEA03334CEA133302D0524263EB430394EA050FF7
:4014C00000F0A780A4F10104D5F1200E0DDB02FA0EFC22FA05F2801841F1000103FA0EF2801843FA05F359410EE0A5F120050EF1200E012A03FA0EFC28BF4CF0020C43FAA1
:4015000005F3C01851EBE37101F0004507D54FF0000EDCF1000C7EEB00006EEB0101B1F5801F1BD3B1F5001F0CD349085FEA30004FEA3C0C04F101044FEA445212F5800FCE
:4015400080F09A80BCF1004F08BF5FEA500C50F1000041EB045141EA050130BD5FEA4C0C404141EB010111F4801FA4F10104E9D191F0000F04BF01460020B1FA81F308BFB1
:401580002033A3F10B03B3F120020CDA0C3208DD02F1140CC2F10C0201FA0CF021FA02F10CE002F11402D8BFC2F1200C01FA02F120FA0CFCDCBF41EA0C019040E41AA2BF11
:4015C00001EB0451294330BD6FEA04041F3C1CDA0C340EDC04F11404C4F1200220FA04F001FA02F340EA030021FA04F345EA030130BDC4F10C04C4F1200220FA02F001FA91
:4016000004F340EA0300294630BD21FA04F0294630BD94F0000F83F4801306BF81F480110134013D4EE77FEA645C18BF7FEA655C29D094EA050F08BF90EA020F05D054EA95
:40164000000C04BF1946104630BD91EA030F1EBF0021002030BD5FEA545C05D14000494128BF41F0004130BD14F580043CBF01F5801130BD01F0004545F0FE4141F4700136
:401680004FF0000030BD7FEA645C1ABF194610467FEA655C1CBF0B46024650EA013406BF52EA033591EA030F41F4002130BD00BF90F0000F04BF0021704730B54FF480643C
:4016C00004F132044FF000054FF0000150E700BF90F0000F04BF0021704730B54FF4806404F1320410F0004548BF40424FF000013EE700BF42004FEAE2014FEA31014FEAF0
:4017000002701FBF12F07F4393F07F4F81F06051704792F0000F14BF93F07F4F704730B54FF4607401F0004521F0004120E700BF50EA010208BF704730B54FF000050AE0E7
:4017400050EA010208BF704730B511F0004502D5404261EB41014FF4806404F132045FEA915C3FF4DCAE4FF003025FEADC0C18BF03325FEADC0C18BF033202EBDC02C2F11B
:40178000200300FA03FC20FA02F001FA03FE40EA0E0021FA02F11444C1E600BF70B54FF0FF0C4CF4E06C1CEA11541DBF1CEA135594EA0C0F95EA0C0F00F0DEF82C4481EA7D
:4017C000030621EA4C5123EA4C5350EA013518BF52EA033541F4801143F4801338D0A0FB02CE4FF00005E1FB02E506F00042E0FB03E54FF00006E1FB03569CF0000F18BFE0
:401800004EF0010EA4F1FF04B6F5007F64F5407404D25FEA4E0E6D4146EB060642EAC62141EA55514FEAC52040EA5E504FEACE2EB4F1FD0C88BFBCF5E06F1ED8BEF1004F2E
:4018400008BF5FEA500E50F1000041EB045170BD06F0004646EA010140EA020081EA0301B4EB5C04C2BFD4EB0C0541EA045170BD41F480114FF0000E013C00F3AB8014F192
:40188000360FDEBF002001F0004170BDC4F10004203C35DA0C341BDC04F11404C4F1200500FA05F320FA04F001FA05F240EA020001F0004221F0004110EBD37021FA04F68F
:4018C00042EB06015EEA430E08BF20EAD37070BDC4F10C04C4F1200500FA04F320FA05F001FA04F240EA020001F0004110EBD37041F100015EEA430E08BF20EAD37070BDA1
:40190000C4F1200500FA05F24EEA020E20FA04F301FA05F243EA020321FA04F001F0004121FA04F220EA020000EBD3705EEA430E08BF20EAD37070BD94F0000F0FD101F095
:401940000046400041EB010111F4801F08BF013CF7D041EA060195F0000F18BF704703F00046520043EB030313F4801F08BF013DF7D043EA0603704794EA0C0F0CEA1355DB
:4019800018BF95EA0C0F0CD050EA410618BF52EA4306D1D181EA030101F000414FF0000070BD50EA410606BF1046194652EA430619D094EA0C0F02D150EA013613D195EAA5
:4019C0000C0F05D152EA03361CBF104619460AD181EA030101F0004141F0FE4141F470014FF0000070BD41F0FE4141F4780170BD70B54FF0FF0C4CF4E06C1CEA11541DBF66
:401A00001CEA135594EA0C0F95EA0C0F00F0A7F8A4EB050481EA030E52EA03354FEA013100F088804FEA03334FF0805545EA131343EA12634FEA022245EA111545EA1065BB
:401A40004FEA00260EF000419D4208BF964244F1FD0404F5407402D25B084FEA3202B61A65EB03055B084FEA32024FF480104FF4002CB6EB020E75EB030E22BFB61A7546FB
:401A800040EA0C005B084FEA3202B6EB020E75EB030E22BFB61A754640EA5C005B084FEA3202B6EB020E75EB030E22BFB61A754640EA9C005B084FEA3202B6EB020E75EB07
:401AC000030E22BFB61A754640EADC0055EA060E18D04FEA051545EA16754FEA06164FEAC30343EA52734FEAC2025FEA1C1CC0D111F4801F0BD141EA00014FF000004FF09C
:401B0000004CB6E711F4801F04BF01430020B4F1FD0C88BFBCF5E06F3FF6AFAEB5EB030C04BFB6EB020C5FEA500C50F1000041EB045170BD0EF0004E4EEA113114EB5C0490
:401B4000C2BFD4EB0C0541EA045170BD41F480114FF0000E013C90E645EA060E8DE60CEA135594EA0C0F08BF95EA0C0F3FF43BAF94EA0C0F0AD150EA01347FF434AF95EABE
:401B80000C0F7FF425AF104619462CE795EA0C0F06D152EA03353FF4FDAE1046194622E750EA410618BF52EA43067FF4C5AE50EA41047FF40DAF52EA43057FF4EBAE12E780
:401BC0004A0011D212F5001211D20DD56FF47873B3EB62520ED44FEAC12343F0004343EA505323FA02F070474FF00000704750EA013002D14FF0FF3070474FF000007047E0
:401C0000014B1868704700BF6481FF1F0E4B70B51E460E4C0025E41AA410A54204D056F8253098470135F8E701F08AFE084B094C1E46E41AA4100025A54204D056F8253040
:401C400098470135F8E770BD4C3900004C3900004C3900005439000010B5431E0A44914204D011F8014B03F8014FF8E710BD03460244934202D003F8011BFAE770472DE9C5
:401C8000F04788B0149F002B1E461299B8BF03F1004327F02007B6BF1E4600232D23462F1446109DDDF84CA00B7003D0452F03D1013501E0032300E0022307AA049206AA84
:401CC00003928DE828042246334600F0B9FB472F804602D1119BDB0728D5462F08EB050911D198F80030302B0AD1002200232046314601F0F3FC18B9C5F10105CAF80050A0
:401D0000DAF800309944002200232046314601F0E5FC08B9302202E0CDF81C9006E0079B994503D9591C07911A70F8E74046079B159AC8EB0303136008B0BDE8F087034692
:401D400073B50029B8BF494203F8022BB4BF2D222B22092942701ADD0DF1070216460A2591FBF5F405FB1411092C01F1300102F8011D2146F4DC3031541E02F8011CB4424B
:401D80001A460AD214F8012B03F8012BF7E71A463024214402F8024B5970101A02B070BD2DE9F04F91B00C46DDF8688016461F46054601F0DDF803681846099300F0AAFA08
:401DC00000230E93D8F800300A90073323F0070303F1080294F81890D4F800B0C8F80020D3E90023C4E91223D4F84CA0D4F848802AF000430B934FF0FF32A74B40460B990C
:401E000001F09EFCA0B94FF0FF32A34B40460B9901F078FC60B9002200234046514601F067FC10B12D2384F843309C4B9C4A0AE0424653464046514601F082FC002800F086
:401E40009281984B984AB9F1470F8CBF90469846032323612BF0040323604FF0000A3DE0B9F1670F00F08A81B9F1470F00F0868123600193636800210DF133020590029265
:401E80000093424653460691CDF81090CDF80CE02846FFF7F4FE09F0DF03472B804600F08481B9F1650F0D9900F28D8101394A4604F150000D91FFF742FF0E9A82468318B0
:401EC000012A236100F37C812268D10700F178819DF8333013B12D2384F84330009733460FAA2146284600F09FF9013002D14FF0FF3096E123685A0501D4236965E0B9F1B3
:401F0000650F40F2D580D4E912010022002301F0E5FB78B30123654A31462846B8470130E5D00E9B0D9A9A420BDB2368D80708D423689B0740F111814FF0000804F1190952
:401F400006E10A9B099A31462846B8470130CED04FF0000804F11A090E9B013B9845E7DA01234A4631462846B8470130BFD008F10108F1E70D9B002B29DC01234B4A314663
:401F80002846B8470130B2D00D9B23B90E9B13B92368D907CCD50A9B099A31462846B8470130A4D04FF0000904F11A0A0D9B5B42994509DA0123524631462846B8470130F3
:401FC00095D009F10109F1E70E9B4246A7E00E9AA36D9A42A8BF1A46002A914606DC4FF0000A29EAE97904F11A0B11E01346314642462846B8470130F1D178E701235A4606
:4020000031462846B84701303FF471AF0AF1010AA36DC9EB03029245F0DB08EB03090D9A0E9B9A420FDB2368DA070CD40E9B0D9A9844C9EB08089B1A9845A8BF9846B8F1F6
:40204000000F08DC0FE00A9B099A31462846B8470130EBD14BE743464A4631462846B84701303FF444AF4FF0000928EAE87804F11A0A09E00123524631462846B847013052
:402080003FF435AF09F101090D9A0E9B9B1AC8EB03039945EEDB4BE7FFFFEF7F12380000163800001A3800001E380000223800000E9A012A01DCDB0738D5012342463146A6
:4020C0002846B84701303FF412AF0A9B099A31462846B84701303FF40AAFD4E912010022002301F0FBFA20B14FF0000804F11A090EE00E9B08F10102013B19E001234A465E
:4021000031462846B84701303FF4F1AE08F101080E9B013B9845F1DB534604F1500231462846B84701307FF403AFE0E64246012331462846B8470130EED1D8E601234A4656
:4021400031462846B84701303FF4D1AE08F10108E3680F9A9B1A9845F0DBE0680F9B9842B8BF18465DE062680EA8531C0DF1340E4BF480637FF474AE062201E012B901228A
:40218000626075E6002106910DF133018DE80C00236005904246CDF81090CDF80CE0029153462846FFF76BFD80460D9BD81C02DB626893421DDDA9F102095FFA89F970E63B
:4021C0000133236184E6B9F1660F14D10029636807DD216113B92268D2071DD501330B4419E013B92268D00701D5023313E0012311E04FF067090D9B0E9A934205DB226844
:402200002361D10708D5013305E0002BD4BFC3F102030123134423610D9B4FF0000AA36556E611B0BDE8F08F2DE9F04791461F460A698B6806469342B8BF1346C9F80030EB
:4022400091F843200C46DDF8208012B10133C9F800302368990642BFD9F800300233C9F80030256815F0060510D104F1190A07E00123524639463046C04701301AD00135EB
:40228000E368D9F800209B1A9D42F1DB94F843302268003318BF012392060FD5E118302081F843005A1C94F845102244023382F8431003E04FF0FF30BDE8F08704F14302E4
:4022C00039463046C0470130F4D02268D9F80050E36802F00602042A08BF5D1B2269A3680CBF25EAE57500259342C4BF9B1AED184FF000091A344D4509D001232246394683
:402300003046C0470130D5D009F10109F3E70020BDE8F087034613F8012B002AFBD1181A013870472DE9F74F03690C6980469C427FDC013C01F114074FEA840E00F114063C
:4023400006EB0E0357F82450019356F824300135B3FBF5F507EB0E09C5B34FF0000A3846B446D34650F8043B9AB205FB02A21B0C4FEA124A05FB03A392B2C2EB0B0BBCF8A5
:4023800000204FEA134A5A441FFA83FBDCF800308145CBEB134303EB224392B242EA03424FEA234B4CF8042BDCD256F80E306BB9019B043B9E421A4602D3C8F8104005E0F7
:4023C0001268043B002AF8D1013CF3E7404600F0E8FF00282BDB304601354FF0000E57F8042B036891B2C1EB0E0E120C99B27144C2EB134303EB214389B24FEA234EB9454C
:4024000041EA034340F8043BE9D256F8242006EB840362B9043B9E421A4602D3C8F8104005E01268043B002AF8D1013CF3E7284600E0002003B0BDE8F08F00000000000083
:402440002DE9F04F456A95B08246219CCDE9022345B9102000F090FDCAF82400456085600560C560DAF82430196859B15A68012393404A608B60504600F0BBFDDAF82430AB
:4024800000221A60039BA04A002BBDBF01232360039B0023BCBF23F000430393DDF80C80A8BF236028F000431B0D1B0593421DD142F20F73209A1360029B43B9934A944B99
:4024C000C8F31300002814BF1846104600E09048229B002B00F04685C37813B100F1080300E0C31C229A136000F03CBDDDE90245002200232046294601F0F0F8074658B1DC
:40250000209A01231360229B002B00F01E8581481860013800F026BD12AB019313AB009322462B46504600F0B7FFC8F30A56049056B1C5F3130343F07F51204641F4401158
:40254000A6F2FF3611971DE0139B129E1E4406F23243202B0ADD029A06F21240C3F1400322FA00F008FA03F3184304E0C3F12000029B03FA00F0FFF79BF80123A1F1F87164
:40258000013E11930022644BFEF754FF58A3D3E90023FFF703F958A3D3E90023FEF74CFF044630460D46FFF793F855A3D3E90023FFF7F4F802460B4620462946FEF73CFF4E
:4025C00004460D4601F0D2F80022834600232046294601F08DF858B15846FFF779F802460B462046294601F079F808B90BF1FF3BBBF1160F0DD8DDE90223484901EBCB016B
:40260000D1E9000101F092F830B10BF1FF3B002300E00123109300E01090129B9E1B731E079343BFC3F10008002307934FF00008BBF1000F06DB079BCDF82CB05B44079398
:40264000002705E00023CBEB0808CBF100070B931E9B092B28D8052BC4BF043B1E931E9BC8BF0025A3F10203D8BF0125032B20D8DFE803F0060E0204012302E0012308E0AD
:4026800000230A931F9B002B1DDD9946059321E000230A931F9B0BEB030909F10103012B0593B8BF012315E0012500231E930A9501E001230A934FF0FF390022CDF81490F8
:4026C00012231F9206E04FF001094B46CDF81490CDF87C90DAF8244000226260042101F114029A421CD86268490001326260F6E761436F63A787D23FB3C8608B288AC63F2C
:40270000FB799F501344D33F0000F07F243800002D380000233800000000F83F403800006168504600F030FCDAF8243020601B680693059B0E2B00F25B81002D00F05881B9
:40274000DDE90234BBF1000FCDE90E3430DD9F4A0BF00F034FEA2B1502EBC303E80618CBCDE908340CD5DDE90E01994B05F00F05D3E90823FFF73CF90324CDE9020100E043
:402780000224934E6DB1E90708D5DDE90801D6E90023FFF703F8CDE9080101346D100836F0E7DDE90823DDE90201FFF721F920E0CBF1000505B3DDE90E01844B05F00F0212
:4027C00003EBC203D3E90023FEF7E8FFCDE902017F4E2D110023022455B1EA0705D5D6E90023FEF7DBFF013401236D100836F3E71BB1CDE9020100E00224109BE3B1DDE95E
:4028000002560022734B2846314600F071FF98B1059B8BB1B9F1000F40F3E6800BF1FF330893314600226C4B2846FEF7B7FF0134CDE902014E4602E0059ECDF820B0204670
:40284000FEF746FFDDE90223FEF7A8FF634B0022FEF7F2FDA1F1507304460C931D46D6B9DDE9020100225E4BFEF7E4FD22460C9BCDE9020100F05AFF002840F03F820C997A
:40288000224601F10043DDE9020100F031FF002840F02B82A8E00A9A4C4B711E002A49D003EBC103D3E9002300204E49FFF7A0F822462B46FEF7BEFDCDE90C01069CDDE96E
:4028C000020100F053FF0546FEF702FF02460B46DDE90201FEF7AEFDDDE90C23303504F8015BCDE9020100F003FF002840F01D83DDE9022300203749FEF79CFDDDE90C23ED
:4029000000F0F6FE002840F0D180069BE31AB3426ADADDE90C0100222F4BFEF73FFF0022CDE90C01DDE902012B4BFEF737FFCDE90201C4E703EBC1012246D1E900012B469A
:40294000FEF72CFF069BCDE90C011D469C19DDE9020100F00BFF0646FEF7BAFE02460B46DDE90201FEF766FD303605F8016BAC42CDE902014FF0000222D11A4BDDE90C0163
:40298000FEF75AFD02460B46DDE9020100F0CEFE002840F08B80DDE90C2300201149FEF749FD02460B46DDE9020100F0A1FED8B114F8013C621E302B40F0B7821446F7E761
:4029C000054BFEF7EBFECDE90201C0E740380000183900000000F03F0000244000001C40000014400000E03FDDE90E34CDE90234139B002B7CDBBBF10E0F79DCAB4B03EBF8
:402A0000CB03D3E900671F9B002B14DA059B002B11DC40F06C810022A54B30463946FEF7BDFEDDE9022300F077FE059D2E46002840F05F8165E1069CDDE9028932463B4676
:402A400040464946FEF7D4FF00F090FE0546FEF73FFE32463B46FEF7A1FE0B46024649464046FEF7E7FC05F1300E069B04F801EBC3EB040E059B73452DD102460B46FEF70A
:402A8000DBFC8046894602460B463046394600F02FFE78B942464B463046394600F01EFE002800F04482EB0704D440E2DDF820B000E01C4614F8012C631E392A07D1069A6E
:402AC0009A42F6D1069930220BF1010B0A701A7801321A702BE20022764BFEF75FFE002200238046894600F0F9FD0028A6D01EE20A9A002A2BD01E9A012A0ADC119A12B1D1
:402B000003F2334302E0129BC3F136033D46444613E0059B5D1EAF42BFBF0B9BEA1B9B180B93059BB6BF2F467D1B0025002BA7BF4446059BC3EB08040023079A01211A4428
:402B400050469844079200F0F3FA064602E03D4644460A9E5CB1079B002B08DDA342A8BF2346079AC3EB0808E41AD31A0793002F1DDD0A9BABB18DB131462A46504600F05D
:402B800071FB049A01460646504600F0DAFA04990890504600F02DFA089B04937A1B06D000E03A460499504600F05CFB04900121504600F0BDFA0B9B05465BB31A46014624
:402BC000504600F04FFB1E9B0546012B18DC029B83B9039BC3F3130373B9039B23F000473F0D3F054FB1079B08F1010801330793012702E0002700E0029F0B9B73B100E01C
:402C000000272B6905EB8303186900F044FAC0F1200004E01E9B012BD9DD0B9F0120079B184410F01F0008D0C0F12003042B02DDC0F11C0002E006D018461C30079B80442D
:402C4000034404440793B8F1000F05DD42460499504600F055FB0490079B002B05DD29461A46504600F04CFB0546109B23B32946049800F096FB00281EDA00230A22049953
:402C8000504600F0CDF90A9B0BF1FF3B0490002B00F05F81314600230A22504600F0C0F9B9F1000F06463FDC3BE000BF403800000000144000002440059B002B2BDC1E9BA4
:402CC000022B28DDDDF81490B9F1000F11D129464B460522504600F0A3F901460546049800F05FFB00280CDC03E0354600E000252E461F9B069C6FEA030B09E03546DDF8EA
:402D000020B0069B069A5C1C312313700BF1010B05960026F7E00A9BDDF8149023B9069CB2E01E9B022BCFDC002C05DD31462246504600F0E5FA06469FB17168504600F087
:402D400023F90446326906F10C01023292000C30FEF782FF01222146504600F0D1FA059000E00596029B069F03F00103079329460498FFF7D7FA3146044600F130080498C0
:402D800000F00FFB059A02902946504600F025FBC36802463BB901460A90049800F001FB0A9A034600E00123114650460A9300F020F90A9B53B91E9A42B9079A32B9B8F1E6
:402DC000390F2AD0029B002B1CDC1DE0029A002A04DB1BD11E9ACAB9079ABAB9002B13DD01220499504600F08BFA2946049000F0D8FA002803DC07D118F0010F04D0B8F1D5
:402E0000390F0AD004F131087C1C0CE0002B07F101040BDDB8F1390F03D139233B70013756E008F1010887F800806CE0069B2746E31A4B4504F8018C3BD000230A2204990C
:402E4000504600F0EDF8059B04909E424FF00A024FF000033146504604D100F0E1F80646059084E700F0DCF8002306460A220599504600F0D5F8059079E700230A2204991E
:402E8000504600F0CDF8049029460498FFF74AFA069B00F1300804F8018BE31A4B45ECDB069B0596B9F1010FACBF4B4401331F46002601220499504600F022FA2946049034
:402EC00000F06FFA002803DC15D118F0010F12D03C4614F8013C621E392B09D1069B934204D10BF1010B3123069A02E01446F0E70133137007E03C4614F8013C621E302B6B
:402F000001D11446F8E72946504600F072F8059B6BB12EB19E4203D03146504600F069F80599504600F065F801E0DDF820B00499504600F05EF80023209A23700BF101038B
:402F40001360229B1BB11C6001E008480AE0069808E0B9F1000F3FF7E2AE1E9B022B7FF7DEAEB1E615B0BDE8F08F00BF22380000004870476881FF1F024B0146186800F02E
:402F8000E7BA00BF6481FF1F70B5456A04460E463DB91020FFF7F0FF6062456085600560C560656AEB6843B1636ADB6853F8260078B1026843F8262017E0212204212046EB
:402FC00000F0B8FA636AE860DB68002BECD1002070BD012101FA06F56A1D9200204600F0A9FA0028F3D04660856000230361C36070BD70B5446A06460D463CB91020FFF79E
:40300000BBFF7062446084600460C4603DB1736A6A68DB6853F82210296043F8225070BD2DE9F04106460C460D691F4601F1140E0023DEF80000013381B202FB0171000C85
:403040000F0C02FB007089B201EB00419D424FEA10474EF8041BECDCD7B1A3689D4212DB616830460131FFF78FFF8046226904F10C01023292000C30FEF7EEFD214630465E
:40308000FFF7B7FF444604EB850301355F6125612046BDE8F081030C1B0413B90004102300E0002310F07F4F04BF0002083310F0704F04BF0001043310F0404F04BF8000DD
:4030C0000233002803DB420003D5581C70471846704720207047036813F007020BD0D90722D49A074BBF5B089B08036003604CBF01200220704799B209B91B0C102213F037
:40310000FF0F04BF1B0A0832190704BF1B090432990704BF9B080232D90702D45B0805D00132036010467047002070472020704710B50C460121FFF727FF01224461026109
:4031400010BD2DE9F74F14460A69236988469A42BEBF0B46A0461C46D8F81070D4F81090D8F80830D8F8041007EB09069E42C8BF0131FFF709FF00F114052B4605EB860CD0
:403180000022634502D243F8042BFAE704F1140208F1140102EB890301EB87070093009B0192934257D9B2F800B0BBF1000F23D08946AE464FF0000859F8044BBEF800A04C
:4031C000A3B20BFB03A34FEA144ADEF8004043444FEA14480BFB0A84F24604EB13449BB243EA04434F454FEA14484AF8043B01D9D646E1E7CEF80480019B0432B3F802A061
:40320000BAF1000F21D02C4689462B684FF00008B9F800E0B4F802B09BB20AFB0EBEA346F04443EA08434BF8043B59F8043BB4F804E01B0C0AFB03E34F4503EB18434FEA5C
:40324000134801D95C46E3E763600435A7E75CF8043D13B9013E002EF9DC066103B0BDE8F08F00002DE9F843154612F0030206460F4607D0214C013A002354F82220FFF7C8
:40328000CFFE0746AD1036D0746A3CB91020FFF773FE7062446084600460C460D6F82480D8F808404CB940F271213046FFF740FF04460023C8F8080003604FF00008EB0716
:4032C0000AD5394622463046FFF73BFF814639463046FFF78EFE4F466D100CD0206808B10446ECE7224621463046FFF72AFF2060C0F80080F4E73846BDE8F8830839000002
:403300002DE9F0470C460746914626694FEA621A56444968A368751CAB4202DA01315B00FAE73846FFF730FE002380461A4600F11401534503DA41F823200133F9E72AEA5E
:40334000EA73206901EB830319F01F0904F1140101EB800E14D0C9F1200C002208689A4600FA09F0024343F8042B51F8042B8E4522FA0CF2F2D8CAF8042042B1B51C06E0A3
:40338000043B51F8042B8E4543F8042FF9D8013D3846C8F810502146FFF72BFE4046BDE8F08703690A6910B59B1A11D192001430143183180A4453F8044D52F8041D8C422C
:4033C00002D007D3012010BD9842F4D3002010BD184610BD4FF0FF3010BD2DE9F8430C460746114620461546FFF7DBFF061E08D131463846FFF7C8FD012303614661BDE8E6
:40340000F883BCBF23462C4638466168BABF1D4601260026FFF7B8FD2B69C660266905F1140904F1140101EB860709EB830800F114054FF0000C51F8042B59F8044B93B290
:403440009C44A3B2240CC3EB0C03C4EB124202EB23429BB24FEA224CC84543EA02428E4645F8042BE7D8BE450ED25EF8041B8AB26244131403EB114392B242EA03424FEAD3
:40348000234C45F8042BEEE755F8043D0BB9013EFAE70661BDE8F8832DE9F3411C4601219046089E099DFFF76FFDC4F31302C4F30A5407460CB142F480120192B8F1000F13
:4034C00019D002A840F8088DFFF705FE009B48B1019AC0F1200102FA01F10B43C2407B61019200E07B61019B002B14BF02210121BB61396107E001A8FFF7EDFD019B012146
:403500007B613961203034B1A4F2334404443460C0F1350009E0A0F2324007EB810330601869FFF7B8FDC0EB41102860384602B0BDE8F08138B502FB01F4214600F008F8F2
:40354000054618B122460021FEF791FB284638BD70B5CD1C25F0030508350C2D38BF0C25002D064601DBA94202D90C23336046E000F05CF8234B1C681A462146A1B10B683C
:403580005B1B0ED40B2B03D90B60CC18CD501EE08C420BBF63684B681360636018BF0C4615E00C464968E9E7174C23681BB9304600F02CF820602946304600F027F8431CDB
:4035C00018D0C41C24F00304A0420DD12560304600F02DF804F10B00231D20F00700C31A0ED05A42E25070BD211A304600F00EF80130EBD10C233360304600F018F800201F
:4036000070BD00BFE881FF1FE481FF1F38B5064C0023054608462360FDF708F9431C02D1236803B12B6038BD3482FF1F704770474FF0FF3C06E000BF4FF0010C02E000BFE2
:403640004FF0010C4DF804CD4FEA410C7FEA6C5C4FEA430C18BF7FEA6C5C1BD001B050EA410C0CBF52EA430C91EA030F02BF90EA020F0020704710F1000F91EA030F58BFC4
:40368000994208BF90422CBFD8176FEAE37040F0010070474FEA410C7FEA6C5C02D150EA013C07D14FEA430C7FEA6C5CD6D152EA033CD3D05DF8040B704700BF84461046D7
:4036C00062468C461946634600E000BF01B5FFF7B7FF002848BF10F1000F01BD4DF808EDFFF7F4FF0CBF012000205DF808FB00BF4DF808EDFFF7EAFF34BF012000205DF862
:4037000008FB00BF4DF808EDFFF7E0FF94BF012000205DF808FB00BF4DF808EDFFF7CEFF94BF012000205DF808FB00BF4DF808EDFFF7C4FF34BF012000205DF808FB00BF27
:403740004FEA410C7FEA6C5C02D150EA013C0AD14FEA430C7FEA6C5C02D152EA033C02D14FF0000070474FF0010070474FEA410212F5001215D211D56FF47873B3EB6252A4
:4037800012D94FEAC12343F0004343EA505311F0004F23FA02F018BF404270474FF00000704750EA013005D111F0004008BF6FF0004070474FF00000704700BF0000000002
:4037C000554152542072656164790000305100404000F0510040100000000140001000140140000480180140800300400140000A004C014000020050014020006052004003
:403800004C0800480600001801405408004880004300494E4600696E66004E414E006E616E003000496E66696E697479004E614E00504F534958002E0000000000000000BA
:40384000000000000000F03F000000000000244000000000000059400000000000408F40000000000088C34000000000006AF8400000000080842E4100000000D0126341E7
:403880000000000084D797410000000065CDCD41000000205FA00242000000E876483742000000A2941A6D42000040E59C30A2420000901EC4BCD64200003426F56B0C43F0
:4038C0000080E03779C3414300A0D8855734764300C84E676DC1AB43003D9160E458E143408CB5781DAF154450EFE2D6E41A4B4492D54D06CFF08044F64AE1C7022DB5441A
:40390000B49DD9794378EA4405000000190000007D000000000000000080E03779C34143176E05B5B5B89346F5F93FE9034F384D321D30F94877825A3CBF737FDD4F1575E1
:40394000F8B500BFF8BC08BC9E4670474D000000A9080000F8B500BFF8BC08BC9E4670472900000078390000C880FF1FD8000000980000000000000000000000000000009B
:40398000232323236F000000B7EEE6A90EB9693F232323230000000000000000000039403882FF1F0000E02EC05D00001800000000366E01000000000000000000000000A4
:4039C000000000000000000000000000000000000000000010380000000000000000000000000000000000000000000000000000000000000000000000000000000000007F
:403A000000000000000000000000000000000000000000000481FF1F3738000038380000383800003838000038380000383800003838000038380000383800003838000084
:403A4000FFFFFFFFFFFFFFFFFFFFFFFFFFFF000000000000000000000000000000000000000000000000000000000000000000000000000000000000000000000000000054
:403A80000000000000000000000000000000000000000000000000000000000000000000000000000000000000000000000000000000000000000000000000000000000006
:403AC00000000000000000000000000000000000000000000000000000000000000000000000000000000000000000000000000000000000000000000000000000000000C6
:403B00000000000000000000000000000000000000000000000000000000000000000000000000000000000000000000000000000000000000000000000000000000000085
:403B40000000000000000000000000000000000000000000000000000000000000000000000000000000000000000000000000000000000000000000000000000000000045
:020000040003F7
:0200000480007A
:4000000003450040015200400564004004650040020301404904014030050140100701404A0801404B0901404D0A0140400B0140580C01402F0D0140421401403315014023
:40004000451601403D17014009180140471901400B1B0140074001400C41014008420140034301400745014004460140074701400348014006490140034C0140094D0140D3
:40008000075001400351014003010A02100110408478850D890F8B728D0D8447850D880789388602E602010106010704100219011D021E022002210124022D013104320248
:4000C0003401350237013E043F50405349FF4AFF4BFF4F01501854205604582459045A045B045C085D035F316040624064406540668068806A806C806E8092019A01B001B1
:40010000BE01C053C5ECC702C813C9FFCAFFCBFFCD83CE03CF01D018D401D604D804DA04DB04DD33DF01E040E240E440E540E680E880EA80EC80EE80031008020B020D80D8
:400140000E010F88106019081A041E80208221202842302031803A043B024308450449804D844F015504570C5A015D045E805F0161106248634066027902852086408740BC
:400180009E02C004C259C40CCA09CC0CCE03D042D218D6D1D88FDE0192049502970299089B109C429D109E04A041A420A580A608A980AB40B710EA040301040605180601D9
:4001C000080709390BC40DE70E010F181001120613E614061508160119801C041DFF2110240225C0280629192BE22D4131383207331F37C03A083B085280580459045B04EF
:400200005C115D305F0180019001950196029A019E01A002A601B001B202B301BE05BF04C053C101C50BC6C0C70EC819C9FFCAFFCBFFCEF0CF44D00CD401D804D904DA04AD
:40024000DB04DD11DF01E6C0EA40EB02000202800524060108220A010B200C800D0A0E0C1030118012031301160817081A801B041D041F04220424102508260927012C8085
:400280002E842F0433083480361237083C183D023E4840224202480149085030530858105A8A750186018708888089208F0491049241942095809708982099229A029B0C0D
:4002C0009D0D9E80A084A142A280A61CA901C0E8C2BFC46CCAF0CCF2CEF0D00AD208D60FEE4002030414081009030B040C100E0C0F08100C12111B051C1C1D031E021F0CAC
:40030000210A23042C092D032E102F04301F370F3B80580459045C115F0181068203840F8501880F90039101920C9402950198039B029C089D06A001A104A404A80CAC0C3B
:40034000AE03B00FB306B701B908BA02BF04C003C704C9FFCA07CBFFCC40CD20CEF0CF05D008D602D710D804D904DA04DB04DC11DD11DF01E040E1A8E240E320018A0308B4
:400380000402052409010A010C800E68134015801680172819021D021E4022802402254828402B012C402E012F40302032803420358036A0370538A03B403D063E023F029B
:4003C00045084C204E2057085E806D046F0574847728908093809640970899209D80A240A301A420A688A708B620B740C07FC2F9C4F1CA89CCFCCECCD040D61001010A084D
:400400000C010D040E06100C1203150419041A031C011E0E2301250229042D012E0C3103360F370439023A803B083F40404149FF4AFF4BFF4F0150185280580459045A0475
:400440005B045C115D445F016040624064406540668068806A806C806E80860C8A048E06900C92029E01A20AA602AE01B00EB601BA02BE40C041C5ECC602C807C9FFCAFF03
:40048000CBFFCD83CE03CF01D018D401D604D804DA04DB04DC01DD44DF01E040E240E440E540E680E880EA80EC80EE8000100220030A04100580080109800B800C210F02A3
:4004C00010221280174019401B031F402480264027502C202D802F443520360837103E403F0241804280458046804905518059456340740276808740C0C7C2D9C48DCAF0B7
:40050000CC60CE90D099D60BD8010002060207010C011E012A012B022D0133013402360137023E503F04401349FF4AFF4BFF4F01501854415604580459045A045B045D02F5
:400540005F016040624064406540668068806A806C806E80A601AE01B001BE01C013C9FFCAFFCBFFCD83CE03CF01D018D280D401D604D804DA04DB04DD22DF01E040E24076
:40058000E440E540E680E880EA80EC80EE8000810180021008C012041620174019501E802001210829802A103A04422043404620474059405A085B205E805F056108620298
:4005C0006780774081028320874088408A06930598809A349D109F40A040A102B120B220C00DC201C4A2CA0CCE02D05AD6DED883E620EA10401345EC4620480B49FF4AFF45
:400600004BFF4D834E034F0150185A045D025F016040624064406540668068806A806C806E808001821086018B019001920899019A1E9C019D019E04A001A101A202AD0148
:40064000B501B61FBE40BF10C005C102C250C401C5CBC6DFC7E0C82FC9FFCAFFCBFFCC22CEF0CF0CD08CD110D608D804D904DA04DB04DD08DF31E840E901EAC0EB010102DD
:400680000310080209400A0410401A01221028022902306038204120420146204740480149014A204F0550105182562059895A2060806254790280028102830184608540C2
:4006C0008C108D8091029204970299089B109C429D109E44A041A420A580AE48B101C00CC20BC408CA09CC0CCE04D05CD208D60FD80FDE01E202E60D8001B601BE40D418D8
:40070000D604D804DB04DD10DF0101020584064007040D800E600F09158216281A021D201E401F4824012501261027202D802EA02F28361337043D043E084542464047205B
:400740004D204E024F0857205B016081612067806C046D406E046F807A047B087C107E20800481408521860487809184972199269B059E80A142A221A501A614B220B54805
:40078000C0F8C2F0C4F0CA70CCE0CE40D0B0D230D601D88DDE60EA2089809D80A810A980AE01B350B480E820EA10EC02EE8130403102348036083B40CCF0CE102E043301C5
:4007C00037028440874097409CC0A502A608CA80CCC0E65087029C809F02A502A608AE04AF01E6409C80A502A60805200B200E405D02C001C20CD6019240932099209D02CD
:400800008D02932099209D02B640E002EE029C80A502A60886088902A502A608B480E2109920B310EA04110174048901A004A920AC04C408DE04E601001B0A090C0A0E12BD
:4008400010071A051C0200FF01C30203808000004000000010000000003010000E00000002000400000001080830040000200111200000001000000004000A080E000002EB
:400880000010102510040E0301302008020000000000504441060500020EC00009FFFFFF62A0F0410C0000000000022C0404040411810821000000000000400200103010F3
:4008C00000101012000000000000000000000000000000000807070000000000800040808000800000000000040B0B00000000003B42400040000000000000000000000059
:4009000000000000000000000000000000000000000000000000000000000000000000000000000000000000000000000000000000000000000000000000000000000000B7
:400940000000000000000000000000000000000000000000000000000000000000000000000000000000000000000000000000000000000000000000000000000000000077
:400980000000000000000000000000000000000000000000000000000000000000000000000000000000000000000000000000000000000000000000000000000000000037
:4009C00000000000000000000000000000000000000000000000000000000000000000000000000000000000000000000000000000000000000000000000000000000000F7
:0200000490006A
:0400000000004005B7
:0200000490105A
:04000000BC90ACAF55
:0200000490303A
:020000007DDAA7
:0200000490402A
:4000000000000000000000000000000000000000000000000000000000000000000000000000000000000000000000000000000000000000000000000000000000000000C0
:400040000000000000000000000000000000000000000000000000000000000000000000000000000000000000000000000000000000000000000000000000000000000080
:400080000000000000000000000000000000000000000000000000000000000000000000000000000000000000000000000000000000000000000000000000000000000040
:4000C0000000000000000000000000000000000000000000000000000000000000000000000000000000000000000000000000000000000000000000000000000000000000
:0200000490501A
:0C00000000012E16106900012E2F8E4307
:00000001FF